Archive member included because of file (symbol)

c:/program files (x86)/atmel/atmel toolchain/avr8 gcc/native/3.4.2.1002/avr8-gnu-toolchain/bin/../lib/gcc/avr/4.7.2/avr51\libgcc.a(_udivmodsi4.o)
                              stack/hal/drivers/atmega128rfa1/halUart.o (__udivmodsi4)
c:/program files (x86)/atmel/atmel toolchain/avr8 gcc/native/3.4.2.1002/avr8-gnu-toolchain/bin/../lib/gcc/avr/4.7.2/avr51\libgcc.a(_exit.o)
                              c:/program files (x86)/atmel/atmel toolchain/avr8 gcc/native/3.4.2.1002/avr8-gnu-toolchain/bin/../lib/gcc/avr/4.7.2/../../../../avr/lib/avr51/crtm128rfa1.o (exit)
c:/program files (x86)/atmel/atmel toolchain/avr8 gcc/native/3.4.2.1002/avr8-gnu-toolchain/bin/../lib/gcc/avr/4.7.2/avr51\libgcc.a(_copy_data.o)
                              stack/nwk/src/nwk.o (__do_copy_data)
c:/program files (x86)/atmel/atmel toolchain/avr8 gcc/native/3.4.2.1002/avr8-gnu-toolchain/bin/../lib/gcc/avr/4.7.2/avr51\libgcc.a(_clear_bss.o)
                              stack/hal/atmega128rfa1/src/halTimer.o (__do_clear_bss)
c:/program files (x86)/atmel/atmel toolchain/avr8 gcc/native/3.4.2.1002/avr8-gnu-toolchain/bin/../lib/gcc/avr/4.7.2/avr51\libgcc.a(_umulhisi3.o)
                              stack/sys/src/sysTimer.o (__umulhisi3)
c:/program files (x86)/atmel/atmel toolchain/avr8 gcc/native/3.4.2.1002/avr8-gnu-toolchain/bin/../lib/gcc/avr/4.7.2/../../../../avr/lib/avr51\libc.a(rand.o)
                              stack/nwk/src/nwkTx.o (rand)
c:/program files (x86)/atmel/atmel toolchain/avr8 gcc/native/3.4.2.1002/avr8-gnu-toolchain/bin/../lib/gcc/avr/4.7.2/../../../../avr/lib/avr51\libc.a(memcpy.o)
                              stack/nwk/src/nwkDataReq.o (memcpy)
c:/program files (x86)/atmel/atmel toolchain/avr8 gcc/native/3.4.2.1002/avr8-gnu-toolchain/bin/../lib/gcc/avr/4.7.2/avr51\libgcc.a(_divmodsi4.o)
                              c:/program files (x86)/atmel/atmel toolchain/avr8 gcc/native/3.4.2.1002/avr8-gnu-toolchain/bin/../lib/gcc/avr/4.7.2/../../../../avr/lib/avr51\libc.a(rand.o) (__divmodsi4)
c:/program files (x86)/atmel/atmel toolchain/avr8 gcc/native/3.4.2.1002/avr8-gnu-toolchain/bin/../lib/gcc/avr/4.7.2/avr51\libgcc.a(_muluhisi3.o)
                              c:/program files (x86)/atmel/atmel toolchain/avr8 gcc/native/3.4.2.1002/avr8-gnu-toolchain/bin/../lib/gcc/avr/4.7.2/../../../../avr/lib/avr51\libc.a(rand.o) (__muluhisi3)
c:/program files (x86)/atmel/atmel toolchain/avr8 gcc/native/3.4.2.1002/avr8-gnu-toolchain/bin/../lib/gcc/avr/4.7.2/avr51\libgcc.a(_mulshisi3.o)
                              c:/program files (x86)/atmel/atmel toolchain/avr8 gcc/native/3.4.2.1002/avr8-gnu-toolchain/bin/../lib/gcc/avr/4.7.2/../../../../avr/lib/avr51\libc.a(rand.o) (__mulohisi3)

Allocating common symbols
Common symbol       size              file

nwkIb               0x28              stack/nwk/src/nwk.o
halTimerIrqCount    0x1               stack/hal/atmega128rfa1/src/halTimer.o

Discarded input sections

 .bss           0x00000000        0x0 c:/program files (x86)/atmel/atmel toolchain/avr8 gcc/native/3.4.2.1002/avr8-gnu-toolchain/bin/../lib/gcc/avr/4.7.2/../../../../avr/lib/avr51/crtm128rfa1.o
 .group         0x00000000        0x8 stack/hal/atmega128rfa1/src/hal.o
 .group         0x00000000        0x8 stack/hal/atmega128rfa1/src/hal.o
 .group         0x00000000        0x8 stack/hal/atmega128rfa1/src/hal.o
 .group         0x00000000        0x8 stack/hal/atmega128rfa1/src/hal.o
 .group         0x00000000        0x8 stack/hal/atmega128rfa1/src/hal.o
 .group         0x00000000        0x8 stack/hal/atmega128rfa1/src/hal.o
 .group         0x00000000        0x8 stack/hal/atmega128rfa1/src/hal.o
 .group         0x00000000        0x8 stack/hal/atmega128rfa1/src/hal.o
 .group         0x00000000        0x8 stack/hal/atmega128rfa1/src/hal.o
 .group         0x00000000        0x8 stack/hal/atmega128rfa1/src/hal.o
 .group         0x00000000        0x8 stack/hal/atmega128rfa1/src/hal.o
 .group         0x00000000        0x8 stack/hal/atmega128rfa1/src/hal.o
 .group         0x00000000        0x8 stack/hal/atmega128rfa1/src/hal.o
 .group         0x00000000        0x8 stack/hal/atmega128rfa1/src/hal.o
 .group         0x00000000        0x8 stack/hal/atmega128rfa1/src/hal.o
 .group         0x00000000        0x8 stack/hal/atmega128rfa1/src/hal.o
 .group         0x00000000        0x8 stack/hal/atmega128rfa1/src/hal.o
Memory Configuration

Name             Origin             Length             Attributes
text             0x00000000         0x00020000         xr
data             0x00800100         0x0000ff00         rw !x
eeprom           0x00810000         0x00010000         rw !x
fuse             0x00820000         0x00000400         rw !x
lock             0x00830000         0x00000400         rw !x
signature        0x00840000         0x00000400         rw !x
user_signatures  0x00850000         0x00000400         rw !x
*default*        0x00000000         0xffffffff

Linker script and memory map

Address of section .data set to 0x800200
LOAD c:/program files (x86)/atmel/atmel toolchain/avr8 gcc/native/3.4.2.1002/avr8-gnu-toolchain/bin/../lib/gcc/avr/4.7.2/../../../../avr/lib/avr51/crtm128rfa1.o
LOAD stack/hal/atmega128rfa1/src/hal.o
LOAD stack/hal/atmega128rfa1/src/halTimer.o
LOAD stack/phy/atmegarfa1/src/phy.o
LOAD stack/nwk/src/nwk.o
LOAD stack/nwk/src/nwkDataReq.o
LOAD stack/nwk/src/nwkSecurity.o
LOAD stack/nwk/src/nwkFrame.o
LOAD stack/nwk/src/nwkGroup.o
LOAD stack/nwk/src/nwkRoute.o
LOAD stack/nwk/src/nwkRouteDiscovery.o
LOAD stack/nwk/src/nwkRx.o
LOAD stack/nwk/src/nwkTx.o
LOAD stack/sys/src/sys.o
LOAD stack/sys/src/sysTimer.o
LOAD stack/sys/src/sysEncrypt.o
LOAD stack/hal/drivers/atmega128rfa1/halUart.o
LOAD stack/hal/drivers/atmega128rfa1/halSleep.o
LOAD commands.o
LOAD WSNDemo.o
START GROUP
END GROUP
LOAD c:/program files (x86)/atmel/atmel toolchain/avr8 gcc/native/3.4.2.1002/avr8-gnu-toolchain/bin/../lib/gcc/avr/4.7.2/avr51\libgcc.a
LOAD c:/program files (x86)/atmel/atmel toolchain/avr8 gcc/native/3.4.2.1002/avr8-gnu-toolchain/bin/../lib/gcc/avr/4.7.2/../../../../avr/lib/avr51\libc.a
LOAD c:/program files (x86)/atmel/atmel toolchain/avr8 gcc/native/3.4.2.1002/avr8-gnu-toolchain/bin/../lib/gcc/avr/4.7.2/avr51\libgcc.a

.hash
 *(.hash)

.dynsym
 *(.dynsym)

.dynstr
 *(.dynstr)

.gnu.version
 *(.gnu.version)

.gnu.version_d
 *(.gnu.version_d)

.gnu.version_r
 *(.gnu.version_r)

.rel.init
 *(.rel.init)

.rela.init
 *(.rela.init)

.rel.text
 *(.rel.text)
 *(.rel.text.*)
 *(.rel.gnu.linkonce.t*)

.rela.text
 *(.rela.text)
 *(.rela.text.*)
 *(.rela.gnu.linkonce.t*)

.rel.fini
 *(.rel.fini)

.rela.fini
 *(.rela.fini)

.rel.rodata
 *(.rel.rodata)
 *(.rel.rodata.*)
 *(.rel.gnu.linkonce.r*)

.rela.rodata
 *(.rela.rodata)
 *(.rela.rodata.*)
 *(.rela.gnu.linkonce.r*)

.rel.data
 *(.rel.data)
 *(.rel.data.*)
 *(.rel.gnu.linkonce.d*)

.rela.data
 *(.rela.data)
 *(.rela.data.*)
 *(.rela.gnu.linkonce.d*)

.rel.ctors
 *(.rel.ctors)

.rela.ctors
 *(.rela.ctors)

.rel.dtors
 *(.rel.dtors)

.rela.dtors
 *(.rela.dtors)

.rel.got
 *(.rel.got)

.rela.got
 *(.rela.got)

.rel.bss
 *(.rel.bss)

.rela.bss
 *(.rela.bss)

.rel.plt
 *(.rel.plt)

.rela.plt
 *(.rela.plt)

.text           0x00000000     0x22a4
 *(.vectors)
 .vectors       0x00000000      0x120 c:/program files (x86)/atmel/atmel toolchain/avr8 gcc/native/3.4.2.1002/avr8-gnu-toolchain/bin/../lib/gcc/avr/4.7.2/../../../../avr/lib/avr51/crtm128rfa1.o
                0x00000000                __vector_default
                0x00000000                __vectors
 *(.vectors)
 *(.progmem.gcc*)
 *(.progmem*)
                0x00000120                . = ALIGN (0x2)
                0x00000120                __trampolines_start = .
 *(.trampolines)
 .trampolines   0x00000120        0x0 linker stubs
 *(.trampolines*)
                0x00000120                __trampolines_end = .
 *(.jumptables)
 *(.jumptables*)
 *(.lowtext)
 *(.lowtext*)
                0x00000120                __ctors_start = .
 *(.ctors)
                0x00000120                __ctors_end = .
                0x00000120                __dtors_start = .
 *(.dtors)
                0x00000120                __dtors_end = .
 SORT(*)(.ctors)
 SORT(*)(.dtors)
 *(.init0)
 .init0         0x00000120        0x0 c:/program files (x86)/atmel/atmel toolchain/avr8 gcc/native/3.4.2.1002/avr8-gnu-toolchain/bin/../lib/gcc/avr/4.7.2/../../../../avr/lib/avr51/crtm128rfa1.o
                0x00000120                __init
 *(.init0)
 *(.init1)
 *(.init1)
 *(.init2)
 .init2         0x00000120        0xc c:/program files (x86)/atmel/atmel toolchain/avr8 gcc/native/3.4.2.1002/avr8-gnu-toolchain/bin/../lib/gcc/avr/4.7.2/../../../../avr/lib/avr51/crtm128rfa1.o
 *(.init2)
 *(.init3)
 *(.init3)
 *(.init4)
 .init4         0x0000012c       0x1a c:/program files (x86)/atmel/atmel toolchain/avr8 gcc/native/3.4.2.1002/avr8-gnu-toolchain/bin/../lib/gcc/avr/4.7.2/avr51\libgcc.a(_copy_data.o)
                0x0000012c                __do_copy_data
 .init4         0x00000146       0x10 c:/program files (x86)/atmel/atmel toolchain/avr8 gcc/native/3.4.2.1002/avr8-gnu-toolchain/bin/../lib/gcc/avr/4.7.2/avr51\libgcc.a(_clear_bss.o)
                0x00000146                __do_clear_bss
 *(.init4)
 *(.init5)
 *(.init5)
 *(.init6)
 *(.init6)
 *(.init7)
 *(.init7)
 *(.init8)
 *(.init8)
 *(.init9)
 .init9         0x00000156        0x8 c:/program files (x86)/atmel/atmel toolchain/avr8 gcc/native/3.4.2.1002/avr8-gnu-toolchain/bin/../lib/gcc/avr/4.7.2/../../../../avr/lib/avr51/crtm128rfa1.o
 *(.init9)
 *(.text)
 .text          0x0000015e        0x4 c:/program files (x86)/atmel/atmel toolchain/avr8 gcc/native/3.4.2.1002/avr8-gnu-toolchain/bin/../lib/gcc/avr/4.7.2/../../../../avr/lib/avr51/crtm128rfa1.o
                0x0000015e                __vector_38
                0x0000015e                __vector_22
                0x0000015e                __vector_63
                0x0000015e                __vector_28
                0x0000015e                __vector_67
                0x0000015e                __vector_1
                0x0000015e                __vector_32
                0x0000015e                __vector_71
                0x0000015e                __vector_34
                0x0000015e                __vector_62
                0x0000015e                __vector_24
                0x0000015e                __vector_12
                0x0000015e                __vector_55
                0x0000015e                __vector_69
                0x0000015e                __vector_46
                0x0000015e                __bad_interrupt
                0x0000015e                __vector_6
                0x0000015e                __vector_31
                0x0000015e                __vector_35
                0x0000015e                __vector_39
                0x0000015e                __vector_3
                0x0000015e                __vector_23
                0x0000015e                __vector_68
                0x0000015e                __vector_30
                0x0000015e                __vector_45
                0x0000015e                __vector_25
                0x0000015e                __vector_61
                0x0000015e                __vector_11
                0x0000015e                __vector_54
                0x0000015e                __vector_17
                0x0000015e                __vector_19
                0x0000015e                __vector_56
                0x0000015e                __vector_7
                0x0000015e                __vector_49
                0x0000015e                __vector_41
                0x0000015e                __vector_64
                0x0000015e                __vector_43
                0x0000015e                __vector_27
                0x0000015e                __vector_5
                0x0000015e                __vector_33
                0x0000015e                __vector_47
                0x0000015e                __vector_52
                0x0000015e                __vector_4
                0x0000015e                __vector_44
                0x0000015e                __vector_51
                0x0000015e                __vector_9
                0x0000015e                __vector_2
                0x0000015e                __vector_21
                0x0000015e                __vector_15
                0x0000015e                __vector_66
                0x0000015e                __vector_58
                0x0000015e                __vector_70
                0x0000015e                __vector_29
                0x0000015e                __vector_60
                0x0000015e                __vector_40
                0x0000015e                __vector_8
                0x0000015e                __vector_26
                0x0000015e                __vector_48
                0x0000015e                __vector_14
                0x0000015e                __vector_57
                0x0000015e                __vector_53
                0x0000015e                __vector_10
                0x0000015e                __vector_50
                0x0000015e                __vector_16
                0x0000015e                __vector_59
                0x0000015e                __vector_18
                0x0000015e                __vector_20
                0x0000015e                __vector_65
                0x00000162                . = ALIGN (0x2)
 *(.text.*)
 .text.HAL_Init
                0x00000162       0x22 stack/hal/atmega128rfa1/src/hal.o
                0x00000162                HAL_Init
 .text.HAL_TimerInit
                0x00000184       0x2a stack/hal/atmega128rfa1/src/halTimer.o
                0x00000184                HAL_TimerInit
 .text.__vector_42
                0x000001ae       0x22 stack/hal/atmega128rfa1/src/halTimer.o
                0x000001ae                __vector_42
 .text.phyTrxSetState
                0x000001d0       0x20 stack/phy/atmegarfa1/src/phy.o
 .text.phySetRxState
                0x000001f0       0x1c stack/phy/atmegarfa1/src/phy.o
 .text.PHY_Init
                0x0000020c       0x26 stack/phy/atmegarfa1/src/phy.o
                0x0000020c                PHY_Init
 .text.PHY_SetRxState
                0x00000232        0x8 stack/phy/atmegarfa1/src/phy.o
                0x00000232                PHY_SetRxState
 .text.PHY_SetChannel
                0x0000023a       0x10 stack/phy/atmegarfa1/src/phy.o
                0x0000023a                PHY_SetChannel
 .text.PHY_SetPanId
                0x0000024a       0x22 stack/phy/atmegarfa1/src/phy.o
                0x0000024a                PHY_SetPanId
 .text.PHY_SetShortAddr
                0x0000026c       0x2c stack/phy/atmegarfa1/src/phy.o
                0x0000026c                PHY_SetShortAddr
 .text.PHY_Sleep
                0x00000298       0x18 stack/phy/atmegarfa1/src/phy.o
                0x00000298                PHY_Sleep
 .text.PHY_Wakeup
                0x000002b0       0x16 stack/phy/atmegarfa1/src/phy.o
                0x000002b0                PHY_Wakeup
 .text.PHY_DataReq
                0x000002c6       0x58 stack/phy/atmegarfa1/src/phy.o
                0x000002c6                PHY_DataReq
 .text.PHY_TaskHandler
                0x0000031e       0xf6 stack/phy/atmegarfa1/src/phy.o
                0x0000031e                PHY_TaskHandler
 .text.NWK_Init
                0x00000414       0x3c stack/nwk/src/nwk.o
                0x00000414                NWK_Init
 .text.NWK_SetAddr
                0x00000450        0xc stack/nwk/src/nwk.o
                0x00000450                NWK_SetAddr
 .text.NWK_SetPanId
                0x0000045c        0xc stack/nwk/src/nwk.o
                0x0000045c                NWK_SetPanId
 .text.NWK_OpenEndpoint
                0x00000468       0x12 stack/nwk/src/nwk.o
                0x00000468                NWK_OpenEndpoint
 .text.NWK_Busy
                0x0000047a       0x12 stack/nwk/src/nwk.o
                0x0000047a                NWK_Busy
 .text.NWK_Lock
                0x0000048c       0x10 stack/nwk/src/nwk.o
                0x0000048c                NWK_Lock
 .text.NWK_Unlock
                0x0000049c       0x10 stack/nwk/src/nwk.o
                0x0000049c                NWK_Unlock
 .text.NWK_SleepReq
                0x000004ac        0x4 stack/nwk/src/nwk.o
                0x000004ac                NWK_SleepReq
 .text.NWK_WakeupReq
                0x000004b0        0x4 stack/nwk/src/nwk.o
                0x000004b0                NWK_WakeupReq
 .text.NWK_TaskHandler
                0x000004b4        0xc stack/nwk/src/nwk.o
                0x000004b4                NWK_TaskHandler
 .text.nwkDataReqTxConf
                0x000004c0       0x3c stack/nwk/src/nwkDataReq.o
 .text.nwkDataReqInit
                0x000004fc        0xa stack/nwk/src/nwkDataReq.o
                0x000004fc                nwkDataReqInit
 .text.NWK_DataReq
                0x00000506       0x3c stack/nwk/src/nwkDataReq.o
                0x00000506                NWK_DataReq
 .text.nwkDataReqTaskHandler
                0x00000542      0x138 stack/nwk/src/nwkDataReq.o
                0x00000542                nwkDataReqTaskHandler
 .text.nwkFrameInit
                0x0000067a       0x14 stack/nwk/src/nwkFrame.o
                0x0000067a                nwkFrameInit
 .text.nwkFrameAlloc
                0x0000068e       0x62 stack/nwk/src/nwkFrame.o
                0x0000068e                nwkFrameAlloc
 .text.nwkFrameFree
                0x000006f0       0x14 stack/nwk/src/nwkFrame.o
                0x000006f0                nwkFrameFree
 .text.nwkFrameNext
                0x00000704       0x28 stack/nwk/src/nwkFrame.o
                0x00000704                nwkFrameNext
 .text.nwkFrameCommandInit
                0x0000072c       0x24 stack/nwk/src/nwkFrame.o
                0x0000072c                nwkFrameCommandInit
 .text.nwkRouteInit
                0x00000750       0x38 stack/nwk/src/nwkRoute.o
                0x00000750                nwkRouteInit
 .text.NWK_RouteFindEntry
                0x00000788       0x52 stack/nwk/src/nwkRoute.o
                0x00000788                NWK_RouteFindEntry
 .text.NWK_RouteNewEntry
                0x000007da       0x44 stack/nwk/src/nwkRoute.o
                0x000007da                NWK_RouteNewEntry
 .text.NWK_RouteFreeEntry
                0x0000081e       0x14 stack/nwk/src/nwkRoute.o
                0x0000081e                NWK_RouteFreeEntry
 .text.NWK_RouteNextHop
                0x00000832       0x18 stack/nwk/src/nwkRoute.o
                0x00000832                NWK_RouteNextHop
 .text.nwkRouteRemove
                0x0000084a        0xe stack/nwk/src/nwkRoute.o
                0x0000084a                nwkRouteRemove
 .text.nwkRouteFrameReceived
                0x00000858       0xaa stack/nwk/src/nwkRoute.o
                0x00000858                nwkRouteFrameReceived
 .text.nwkRouteFrameSent
                0x00000902       0x86 stack/nwk/src/nwkRoute.o
                0x00000902                nwkRouteFrameSent
 .text.nwkRoutePrepareTx
                0x00000988       0x2e stack/nwk/src/nwkRoute.o
                0x00000988                nwkRoutePrepareTx
 .text.nwkRouteFrame
                0x000009b6       0xba stack/nwk/src/nwkRoute.o
                0x000009b6                nwkRouteFrame
 .text.nwkRouteErrorReceived
                0x00000a70       0x24 stack/nwk/src/nwkRoute.o
                0x00000a70                nwkRouteErrorReceived
 .text.nwkRxDuplicateRejectionTimerHandler
                0x00000a94       0x24 stack/nwk/src/nwkRx.o
 .text.nwkRxServiceDataInd
                0x00000ab8       0x2c stack/nwk/src/nwkRx.o
 .text.nwkRxInit
                0x00000ae4       0x42 stack/nwk/src/nwkRx.o
                0x00000ae4                nwkRxInit
 .text.PHY_DataInd
                0x00000b26       0x62 stack/nwk/src/nwkRx.o
                0x00000b26                PHY_DataInd
 .text.NWK_SetAckControl
                0x00000b88        0x6 stack/nwk/src/nwkRx.o
                0x00000b88                NWK_SetAckControl
 .text.nwkRxTaskHandler
                0x00000b8e      0x426 stack/nwk/src/nwkRx.o
                0x00000b8e                nwkRxTaskHandler
 .text.nwkTxDelayTimerHandler
                0x00000fb4       0x5e stack/nwk/src/nwkTx.o
 .text.nwkTxAckWaitTimerHandler
                0x00001012       0x70 stack/nwk/src/nwkTx.o
 .text.nwkTxInit
                0x00001082       0x5a stack/nwk/src/nwkTx.o
                0x00001082                nwkTxInit
 .text.nwkTxFrame
                0x000010dc       0xa8 stack/nwk/src/nwkTx.o
                0x000010dc                nwkTxFrame
 .text.nwkTxBroadcastFrame
                0x00001184       0x98 stack/nwk/src/nwkTx.o
                0x00001184                nwkTxBroadcastFrame
 .text.nwkTxAckReceived
                0x0000121c       0x46 stack/nwk/src/nwkTx.o
                0x0000121c                nwkTxAckReceived
 .text.PHY_DataConf
                0x00001262       0x42 stack/nwk/src/nwkTx.o
                0x00001262                PHY_DataConf
 .text.nwkTxTaskHandler
                0x000012a4      0x11c stack/nwk/src/nwkTx.o
                0x000012a4                nwkTxTaskHandler
 .text.SYS_Init
                0x000013c0       0x10 stack/sys/src/sys.o
                0x000013c0                SYS_Init
 .text.SYS_TaskHandler
                0x000013d0        0xc stack/sys/src/sys.o
                0x000013d0                SYS_TaskHandler
 .text.placeTimer
                0x000013dc       0xb0 stack/sys/src/sysTimer.o
 .text.SYS_TimerInit
                0x0000148c        0xa stack/sys/src/sysTimer.o
                0x0000148c                SYS_TimerInit
 .text.SYS_TimerStop
                0x00001496       0x70 stack/sys/src/sysTimer.o
                0x00001496                SYS_TimerStop
 .text.SYS_TimerStarted
                0x00001506       0x22 stack/sys/src/sysTimer.o
                0x00001506                SYS_TimerStarted
 .text.SYS_TimerStart
                0x00001528       0x1e stack/sys/src/sysTimer.o
                0x00001528                SYS_TimerStart
 .text.SYS_TimerTaskHandler
                0x00001546       0x96 stack/sys/src/sysTimer.o
                0x00001546                SYS_TimerTaskHandler
 .text.HAL_UartInit
                0x000015dc       0xb4 stack/hal/drivers/atmega128rfa1/halUart.o
                0x000015dc                HAL_UartInit
 .text.HAL_UartWriteByte
                0x00001690       0x56 stack/hal/drivers/atmega128rfa1/halUart.o
                0x00001690                HAL_UartWriteByte
 .text.HAL_UartReadByte
                0x000016e6       0x5c stack/hal/drivers/atmega128rfa1/halUart.o
                0x000016e6                HAL_UartReadByte
 .text.__vector_37
                0x00001742       0x38 stack/hal/drivers/atmega128rfa1/halUart.o
                0x00001742                __vector_37
 .text.__vector_36
                0x0000177a       0xb0 stack/hal/drivers/atmega128rfa1/halUart.o
                0x0000177a                __vector_36
 .text.HAL_UartTaskHandler
                0x0000182a       0x8c stack/hal/drivers/atmega128rfa1/halUart.o
                0x0000182a                HAL_UartTaskHandler
 .text.halSleepSynchronize
                0x000018b6        0xa stack/hal/drivers/atmega128rfa1/halSleep.o
 .text.HAL_Sleep
                0x000018c0       0xe0 stack/hal/drivers/atmega128rfa1/halSleep.o
                0x000018c0                HAL_Sleep
 .text.__vector_13
                0x000019a0       0x1e stack/hal/drivers/atmega128rfa1/halSleep.o
                0x000019a0                __vector_13
 .text.appCmdIdentifyPeriodTimerHandler
                0x000019be        0xa commands.o
 .text.appCmdIdentifyDurationTimerHandler
                0x000019c8        0xe commands.o
 .text.appCmdHandle.part.0
                0x000019d6       0x86 commands.o
 .text.appCmdCheckPendingTable
                0x00001a5c       0x7e commands.o
 .text.appCmdDataConf
                0x00001ada       0x1e commands.o
 .text.appCmdDataInd
                0x00001af8       0x20 commands.o
 .text.APP_CommandsInit
                0x00001b18       0x96 commands.o
                0x00001b18                APP_CommandsInit
 .text.APP_CommandsPending
                0x00001bae       0x3e commands.o
                0x00001bae                APP_CommandsPending
 .text.APP_CommandsByteReceived
                0x00001bec      0x1c0 commands.o
                0x00001bec                APP_CommandsByteReceived
 .text.appDataSendingTimerHandler
                0x00001dac       0x18 WSNDemo.o
 .text.appUartSendMessage
                0x00001dc4       0x86 WSNDemo.o
 .text.appDataInd
                0x00001e4a       0x3e WSNDemo.o
 .text.HAL_UartBytesReceived
                0x00001e88       0x2a WSNDemo.o
                0x00001e88                HAL_UartBytesReceived
 .text.startup.main
                0x00001eb2      0x264 WSNDemo.o
                0x00001eb2                main
 .text.libgcc.div
                0x00002116       0x44 c:/program files (x86)/atmel/atmel toolchain/avr8 gcc/native/3.4.2.1002/avr8-gnu-toolchain/bin/../lib/gcc/avr/4.7.2/avr51\libgcc.a(_udivmodsi4.o)
                0x00002116                __udivmodsi4
 .text.libgcc.mul
                0x0000215a       0x18 c:/program files (x86)/atmel/atmel toolchain/avr8 gcc/native/3.4.2.1002/avr8-gnu-toolchain/bin/../lib/gcc/avr/4.7.2/avr51\libgcc.a(_umulhisi3.o)
                0x0000215a                __umulhisi3
 .text.avr-libc
                0x00002172       0xbe c:/program files (x86)/atmel/atmel toolchain/avr8 gcc/native/3.4.2.1002/avr8-gnu-toolchain/bin/../lib/gcc/avr/4.7.2/../../../../avr/lib/avr51\libc.a(rand.o)
                0x0000220e                rand_r
                0x00002212                rand
                0x0000221a                srand
 .text.avr-libc
                0x00002230       0x12 c:/program files (x86)/atmel/atmel toolchain/avr8 gcc/native/3.4.2.1002/avr8-gnu-toolchain/bin/../lib/gcc/avr/4.7.2/../../../../avr/lib/avr51\libc.a(memcpy.o)
                0x00002230                memcpy
 .text.libgcc.div
                0x00002242       0x38 c:/program files (x86)/atmel/atmel toolchain/avr8 gcc/native/3.4.2.1002/avr8-gnu-toolchain/bin/../lib/gcc/avr/4.7.2/avr51\libgcc.a(_divmodsi4.o)
                0x00002242                __divmodsi4
 .text.libgcc.mul
                0x0000227a       0x16 c:/program files (x86)/atmel/atmel toolchain/avr8 gcc/native/3.4.2.1002/avr8-gnu-toolchain/bin/../lib/gcc/avr/4.7.2/avr51\libgcc.a(_muluhisi3.o)
                0x0000227a                __muluhisi3
 .text.libgcc.mul
                0x00002290       0x10 c:/program files (x86)/atmel/atmel toolchain/avr8 gcc/native/3.4.2.1002/avr8-gnu-toolchain/bin/../lib/gcc/avr/4.7.2/avr51\libgcc.a(_mulshisi3.o)
                0x00002290                __mulshisi3
                0x00002296                __mulohisi3
                0x000022a0                . = ALIGN (0x2)
 *(.fini9)
 .fini9         0x000022a0        0x0 c:/program files (x86)/atmel/atmel toolchain/avr8 gcc/native/3.4.2.1002/avr8-gnu-toolchain/bin/../lib/gcc/avr/4.7.2/avr51\libgcc.a(_exit.o)
                0x000022a0                _exit
                0x000022a0                exit
 *(.fini9)
 *(.fini8)
 *(.fini8)
 *(.fini7)
 *(.fini7)
 *(.fini6)
 *(.fini6)
 *(.fini5)
 *(.fini5)
 *(.fini4)
 *(.fini4)
 *(.fini3)
 *(.fini3)
 *(.fini2)
 *(.fini2)
 *(.fini1)
 *(.fini1)
 *(.fini0)
 .fini0         0x000022a0        0x4 c:/program files (x86)/atmel/atmel toolchain/avr8 gcc/native/3.4.2.1002/avr8-gnu-toolchain/bin/../lib/gcc/avr/4.7.2/avr51\libgcc.a(_exit.o)
 *(.fini0)
                0x000022a4                _etext = .

.data           0x00800200       0x14 load address 0x000022a4
                0x00800200                PROVIDE (__data_start, .)
 *(.data)
 .data          0x00800200        0x0 c:/program files (x86)/atmel/atmel toolchain/avr8 gcc/native/3.4.2.1002/avr8-gnu-toolchain/bin/../lib/gcc/avr/4.7.2/../../../../avr/lib/avr51/crtm128rfa1.o
 .data          0x00800200        0x0 stack/hal/atmega128rfa1/src/hal.o
 .data          0x00800200        0x0 stack/hal/atmega128rfa1/src/halTimer.o
 .data          0x00800200        0x0 stack/phy/atmegarfa1/src/phy.o
 .data          0x00800200        0x0 stack/nwk/src/nwk.o
 .data          0x00800200        0x0 stack/nwk/src/nwkDataReq.o
 .data          0x00800200        0x0 stack/nwk/src/nwkSecurity.o
 .data          0x00800200        0x0 stack/nwk/src/nwkFrame.o
 .data          0x00800200        0x0 stack/nwk/src/nwkGroup.o
 .data          0x00800200        0x0 stack/nwk/src/nwkRoute.o
 .data          0x00800200        0x0 stack/nwk/src/nwkRouteDiscovery.o
 .data          0x00800200        0x0 stack/nwk/src/nwkRx.o
 .data          0x00800200        0x0 stack/nwk/src/nwkTx.o
 .data          0x00800200        0x0 stack/sys/src/sys.o
 .data          0x00800200        0x0 stack/sys/src/sysTimer.o
 .data          0x00800200        0x0 stack/sys/src/sysEncrypt.o
 .data          0x00800200        0x0 stack/hal/drivers/atmega128rfa1/halUart.o
 .data          0x00800200        0x0 stack/hal/drivers/atmega128rfa1/halSleep.o
 .data          0x00800200        0x0 commands.o
 .data          0x00800200        0x0 WSNDemo.o
 .data          0x00800200        0x0 c:/program files (x86)/atmel/atmel toolchain/avr8 gcc/native/3.4.2.1002/avr8-gnu-toolchain/bin/../lib/gcc/avr/4.7.2/avr51\libgcc.a(_udivmodsi4.o)
 .data          0x00800200        0x0 c:/program files (x86)/atmel/atmel toolchain/avr8 gcc/native/3.4.2.1002/avr8-gnu-toolchain/bin/../lib/gcc/avr/4.7.2/avr51\libgcc.a(_exit.o)
 .data          0x00800200        0x0 c:/program files (x86)/atmel/atmel toolchain/avr8 gcc/native/3.4.2.1002/avr8-gnu-toolchain/bin/../lib/gcc/avr/4.7.2/avr51\libgcc.a(_copy_data.o)
 .data          0x00800200        0x0 c:/program files (x86)/atmel/atmel toolchain/avr8 gcc/native/3.4.2.1002/avr8-gnu-toolchain/bin/../lib/gcc/avr/4.7.2/avr51\libgcc.a(_clear_bss.o)
 .data          0x00800200        0x0 c:/program files (x86)/atmel/atmel toolchain/avr8 gcc/native/3.4.2.1002/avr8-gnu-toolchain/bin/../lib/gcc/avr/4.7.2/avr51\libgcc.a(_umulhisi3.o)
 .data          0x00800200        0x4 c:/program files (x86)/atmel/atmel toolchain/avr8 gcc/native/3.4.2.1002/avr8-gnu-toolchain/bin/../lib/gcc/avr/4.7.2/../../../../avr/lib/avr51\libc.a(rand.o)
 .data          0x00800204        0x0 c:/program files (x86)/atmel/atmel toolchain/avr8 gcc/native/3.4.2.1002/avr8-gnu-toolchain/bin/../lib/gcc/avr/4.7.2/../../../../avr/lib/avr51\libc.a(memcpy.o)
 .data          0x00800204        0x0 c:/program files (x86)/atmel/atmel toolchain/avr8 gcc/native/3.4.2.1002/avr8-gnu-toolchain/bin/../lib/gcc/avr/4.7.2/avr51\libgcc.a(_divmodsi4.o)
 .data          0x00800204        0x0 c:/program files (x86)/atmel/atmel toolchain/avr8 gcc/native/3.4.2.1002/avr8-gnu-toolchain/bin/../lib/gcc/avr/4.7.2/avr51\libgcc.a(_muluhisi3.o)
 .data          0x00800204        0x0 c:/program files (x86)/atmel/atmel toolchain/avr8 gcc/native/3.4.2.1002/avr8-gnu-toolchain/bin/../lib/gcc/avr/4.7.2/avr51\libgcc.a(_mulshisi3.o)
 *(.data*)
 *(.rodata)
 *(.rodata*)
 .rodata.CSWTCH.4
                0x00800204        0x3 stack/nwk/src/nwkTx.o
 .rodata.str1.1
                0x00800207        0xc WSNDemo.o
 *(.gnu.linkonce.d*)
                0x00800214                . = ALIGN (0x2)
 *fill*         0x00800213        0x1 
                0x00800214                _edata = .
                0x00800214                PROVIDE (__data_end, .)

.bss            0x00800214      0xb21
                0x00800214                PROVIDE (__bss_start, .)
 *(.bss)
 *(.bss*)
 .bss.phyRxState
                0x00800214        0x1 stack/phy/atmegarfa1/src/phy.o
 .bss.phyState  0x00800215        0x1 stack/phy/atmegarfa1/src/phy.o
 .bss.phyRxBuffer
                0x00800216       0x80 stack/phy/atmegarfa1/src/phy.o
 .bss.nwkDataReqQueue
                0x00800296        0x2 stack/nwk/src/nwkDataReq.o
 .bss.nwkFrameFrames
                0x00800298      0x55a stack/nwk/src/nwkFrame.o
 .bss.nwkRouteTable
                0x008007f2      0x2bc stack/nwk/src/nwkRoute.o
 .bss.nwkRxDuplicateRejectionTable
                0x00800aae       0xfa stack/nwk/src/nwkRx.o
 .bss.nwkRxDuplicateRejectionTimer
                0x00800ba8        0xd stack/nwk/src/nwkRx.o
 .bss.nwkRxAckControl
                0x00800bb5        0x1 stack/nwk/src/nwkRx.o
 .bss.nwkTxPhyActiveFrame
                0x00800bb6        0x2 stack/nwk/src/nwkTx.o
 .bss.nwkTxAckWaitTimer
                0x00800bb8        0xd stack/nwk/src/nwkTx.o
 .bss.nwkTxDelayTimer
                0x00800bc5        0xd stack/nwk/src/nwkTx.o
 .bss.timers    0x00800bd2        0x2 stack/sys/src/sysTimer.o
 .bss.newData   0x00800bd4        0x1 stack/hal/drivers/atmega128rfa1/halUart.o
 .bss.udrEmpty  0x00800bd5        0x1 stack/hal/drivers/atmega128rfa1/halUart.o
 .bss.rxFifo    0x00800bd6        0xa stack/hal/drivers/atmega128rfa1/halUart.o
 .bss.txFifo    0x00800be0        0xa stack/hal/drivers/atmega128rfa1/halUart.o
 .bss.txData    0x00800bea       0x65 stack/hal/drivers/atmega128rfa1/halUart.o
 .bss.rxData    0x00800c4f        0xb stack/hal/drivers/atmega128rfa1/halUart.o
 .bss.halSleepTimerEvent
                0x00800c5a        0x1 stack/hal/drivers/atmega128rfa1/halSleep.o
 .bss.appCmdIdentifyDurationTimer
                0x00800c5b        0xd commands.o
 .bss.appCmdIdentifyPeriodTimer
                0x00800c68        0xd commands.o
 .bss.appCmdInProgress
                0x00800c75        0x2 commands.o
 .bss.appCmdDataReq
                0x00800c77       0x11 commands.o
 .bss.appCmdPendingTable
                0x00800c88       0x2d commands.o
 .bss.appCmdUartState
                0x00800cb5        0x1 commands.o
 .bss.appCmdUartPtr
                0x00800cb6        0x1 commands.o
 .bss.appCmdUartCsum
                0x00800cb7        0x1 commands.o
 .bss.appCmdUartBuf
                0x00800cb8       0x10 commands.o
 .bss.appState  0x00800cc8        0x1 WSNDemo.o
 .bss.appDataSendingTimer
                0x00800cc9        0xd WSNDemo.o
 .bss.appMsg    0x00800cd6       0x36 WSNDemo.o
 *(COMMON)
 COMMON         0x00800d0c        0x1 stack/hal/atmega128rfa1/src/halTimer.o
                0x00800d0c                halTimerIrqCount
 COMMON         0x00800d0d       0x28 stack/nwk/src/nwk.o
                0x00800d0d                nwkIb
                0x00800d35                PROVIDE (__bss_end, .)
                0x000022a4                __data_load_start = LOADADDR (.data)
                0x000022b8                __data_load_end = (__data_load_start + SIZEOF (.data))

.noinit         0x00800d35        0x0
                0x00800d35                PROVIDE (__noinit_start, .)
 *(.noinit*)
                0x00800d35                PROVIDE (__noinit_end, .)
                0x00800d35                _end = .
                0x00800d35                PROVIDE (__heap_start, .)

.eeprom         0x00810000        0x0
 *(.eeprom*)
                0x00810000                __eeprom_end = .

.fuse
 *(.fuse)
 *(.lfuse)
 *(.hfuse)
 *(.efuse)

.lock
 *(.lock*)

.signature
 *(.signature*)

.user_signatures
 *(.user_signatures*)

.stab           0x00000000      0x750
 *(.stab)
 .stab          0x00000000      0x6cc c:/program files (x86)/atmel/atmel toolchain/avr8 gcc/native/3.4.2.1002/avr8-gnu-toolchain/bin/../lib/gcc/avr/4.7.2/../../../../avr/lib/avr51/crtm128rfa1.o
 .stab          0x000006cc       0x84 c:/program files (x86)/atmel/atmel toolchain/avr8 gcc/native/3.4.2.1002/avr8-gnu-toolchain/bin/../lib/gcc/avr/4.7.2/../../../../avr/lib/avr51\libc.a(memcpy.o)
                                 0x90 (size before relaxing)

.stabstr        0x00000000      0x10b
 *(.stabstr)
 .stabstr       0x00000000      0x10b c:/program files (x86)/atmel/atmel toolchain/avr8 gcc/native/3.4.2.1002/avr8-gnu-toolchain/bin/../lib/gcc/avr/4.7.2/../../../../avr/lib/avr51/crtm128rfa1.o

.stab.excl
 *(.stab.excl)

.stab.exclstr
 *(.stab.exclstr)

.stab.index
 *(.stab.index)

.stab.indexstr
 *(.stab.indexstr)

.comment        0x00000000       0x2f
 *(.comment)
 .comment       0x00000000       0x2f stack/hal/atmega128rfa1/src/hal.o
                                 0x30 (size before relaxing)
 .comment       0x00000000       0x30 stack/hal/atmega128rfa1/src/halTimer.o
 .comment       0x00000000       0x30 stack/phy/atmegarfa1/src/phy.o
 .comment       0x00000000       0x30 stack/nwk/src/nwk.o
 .comment       0x00000000       0x30 stack/nwk/src/nwkDataReq.o
 .comment       0x00000000       0x30 stack/nwk/src/nwkSecurity.o
 .comment       0x00000000       0x30 stack/nwk/src/nwkFrame.o
 .comment       0x00000000       0x30 stack/nwk/src/nwkGroup.o
 .comment       0x00000000       0x30 stack/nwk/src/nwkRoute.o
 .comment       0x00000000       0x30 stack/nwk/src/nwkRouteDiscovery.o
 .comment       0x00000000       0x30 stack/nwk/src/nwkRx.o
 .comment       0x00000000       0x30 stack/nwk/src/nwkTx.o
 .comment       0x00000000       0x30 stack/sys/src/sys.o
 .comment       0x00000000       0x30 stack/sys/src/sysTimer.o
 .comment       0x00000000       0x30 stack/sys/src/sysEncrypt.o
 .comment       0x00000000       0x30 stack/hal/drivers/atmega128rfa1/halUart.o
 .comment       0x00000000       0x30 stack/hal/drivers/atmega128rfa1/halSleep.o
 .comment       0x00000000       0x30 commands.o
 .comment       0x00000000       0x30 WSNDemo.o
 .comment       0x00000000       0x30 c:/program files (x86)/atmel/atmel toolchain/avr8 gcc/native/3.4.2.1002/avr8-gnu-toolchain/bin/../lib/gcc/avr/4.7.2/../../../../avr/lib/avr51\libc.a(rand.o)

.debug
 *(.debug)

.line
 *(.line)

.debug_srcinfo
 *(.debug_srcinfo)

.debug_sfnames
 *(.debug_sfnames)

.debug_aranges  0x00000000      0x500
 *(.debug_aranges)
 .debug_aranges
                0x00000000       0x28 stack/hal/atmega128rfa1/src/hal.o
 .debug_aranges
                0x00000028       0x30 stack/hal/atmega128rfa1/src/halTimer.o
 .debug_aranges
                0x00000058       0x78 stack/phy/atmegarfa1/src/phy.o
 .debug_aranges
                0x000000d0       0x70 stack/nwk/src/nwk.o
 .debug_aranges
                0x00000140       0x38 stack/nwk/src/nwkDataReq.o
 .debug_aranges
                0x00000178       0x18 stack/nwk/src/nwkSecurity.o
 .debug_aranges
                0x00000190       0x40 stack/nwk/src/nwkFrame.o
 .debug_aranges
                0x000001d0       0x18 stack/nwk/src/nwkGroup.o
 .debug_aranges
                0x000001e8       0x80 stack/nwk/src/nwkRoute.o
 .debug_aranges
                0x00000268       0x18 stack/nwk/src/nwkRouteDiscovery.o
 .debug_aranges
                0x00000280       0x48 stack/nwk/src/nwkRx.o
 .debug_aranges
                0x000002c8       0x60 stack/nwk/src/nwkTx.o
 .debug_aranges
                0x00000328       0x28 stack/sys/src/sys.o
 .debug_aranges
                0x00000350       0x48 stack/sys/src/sysTimer.o
 .debug_aranges
                0x00000398       0x18 stack/sys/src/sysEncrypt.o
 .debug_aranges
                0x000003b0       0x48 stack/hal/drivers/atmega128rfa1/halUart.o
 .debug_aranges
                0x000003f8       0x30 stack/hal/drivers/atmega128rfa1/halSleep.o
 .debug_aranges
                0x00000428       0x60 commands.o
 .debug_aranges
                0x00000488       0x40 WSNDemo.o
 .debug_aranges
                0x000004c8       0x38 c:/program files (x86)/atmel/atmel toolchain/avr8 gcc/native/3.4.2.1002/avr8-gnu-toolchain/bin/../lib/gcc/avr/4.7.2/../../../../avr/lib/avr51\libc.a(rand.o)

.debug_pubnames
 *(.debug_pubnames)

.debug_info     0x00000000     0x6146
 *(.debug_info)
 .debug_info    0x00000000       0xee stack/hal/atmega128rfa1/src/hal.o
 .debug_info    0x000000ee       0xe8 stack/hal/atmega128rfa1/src/halTimer.o
 .debug_info    0x000001d6      0x74a stack/phy/atmegarfa1/src/phy.o
 .debug_info    0x00000920      0x4c5 stack/nwk/src/nwk.o
 .debug_info    0x00000de5      0x779 stack/nwk/src/nwkDataReq.o
 .debug_info    0x0000155e       0x68 stack/nwk/src/nwkSecurity.o
 .debug_info    0x000015c6      0x571 stack/nwk/src/nwkFrame.o
 .debug_info    0x00001b37       0x5a stack/nwk/src/nwkGroup.o
 .debug_info    0x00001b91      0xb66 stack/nwk/src/nwkRoute.o
 .debug_info    0x000026f7       0x68 stack/nwk/src/nwkRouteDiscovery.o
 .debug_info    0x0000275f      0xcd1 stack/nwk/src/nwkRx.o
 .debug_info    0x00003430      0xa0c stack/nwk/src/nwkTx.o
 .debug_info    0x00003e3c      0x131 stack/sys/src/sys.o
 .debug_info    0x00003f6d      0x38f stack/sys/src/sysTimer.o
 .debug_info    0x000042fc       0x5a stack/sys/src/sysEncrypt.o
 .debug_info    0x00004356      0x333 stack/hal/drivers/atmega128rfa1/halUart.o
 .debug_info    0x00004689      0x184 stack/hal/drivers/atmega128rfa1/halSleep.o
 .debug_info    0x0000480d      0xb81 commands.o
 .debug_info    0x0000538e      0xc5f WSNDemo.o
 .debug_info    0x00005fed      0x159 c:/program files (x86)/atmel/atmel toolchain/avr8 gcc/native/3.4.2.1002/avr8-gnu-toolchain/bin/../lib/gcc/avr/4.7.2/../../../../avr/lib/avr51\libc.a(rand.o)
 *(.gnu.linkonce.wi.*)

.debug_abbrev   0x00000000     0x20b6
 *(.debug_abbrev)
 .debug_abbrev  0x00000000       0x9c stack/hal/atmega128rfa1/src/hal.o
 .debug_abbrev  0x0000009c       0xad stack/hal/atmega128rfa1/src/halTimer.o
 .debug_abbrev  0x00000149      0x25f stack/phy/atmegarfa1/src/phy.o
 .debug_abbrev  0x000003a8      0x1cc stack/nwk/src/nwk.o
 .debug_abbrev  0x00000574      0x2a1 stack/nwk/src/nwkDataReq.o
 .debug_abbrev  0x00000815       0x29 stack/nwk/src/nwkSecurity.o
 .debug_abbrev  0x0000083e      0x193 stack/nwk/src/nwkFrame.o
 .debug_abbrev  0x000009d1       0x29 stack/nwk/src/nwkGroup.o
 .debug_abbrev  0x000009fa      0x386 stack/nwk/src/nwkRoute.o
 .debug_abbrev  0x00000d80       0x29 stack/nwk/src/nwkRouteDiscovery.o
 .debug_abbrev  0x00000da9      0x3e1 stack/nwk/src/nwkRx.o
 .debug_abbrev  0x0000118a      0x34b stack/nwk/src/nwkTx.o
 .debug_abbrev  0x000014d5       0x73 stack/sys/src/sys.o
 .debug_abbrev  0x00001548      0x1f0 stack/sys/src/sysTimer.o
 .debug_abbrev  0x00001738       0x29 stack/sys/src/sysEncrypt.o
 .debug_abbrev  0x00001761      0x167 stack/hal/drivers/atmega128rfa1/halUart.o
 .debug_abbrev  0x000018c8       0xce stack/hal/drivers/atmega128rfa1/halSleep.o
 .debug_abbrev  0x00001996      0x35d commands.o
 .debug_abbrev  0x00001cf3      0x2ea WSNDemo.o
 .debug_abbrev  0x00001fdd       0xd9 c:/program files (x86)/atmel/atmel toolchain/avr8 gcc/native/3.4.2.1002/avr8-gnu-toolchain/bin/../lib/gcc/avr/4.7.2/../../../../avr/lib/avr51\libc.a(rand.o)

.debug_line     0x00000000     0x4b4e
 *(.debug_line)
 .debug_line    0x00000000      0x317 stack/hal/atmega128rfa1/src/hal.o
 .debug_line    0x00000317      0x336 stack/hal/atmega128rfa1/src/halTimer.o
 .debug_line    0x0000064d      0x46e stack/phy/atmegarfa1/src/phy.o
 .debug_line    0x00000abb      0x487 stack/nwk/src/nwk.o
 .debug_line    0x00000f42      0x40a stack/nwk/src/nwkDataReq.o
 .debug_line    0x0000134c      0x386 stack/nwk/src/nwkSecurity.o
 .debug_line    0x000016d2      0x3e4 stack/nwk/src/nwkFrame.o
 .debug_line    0x00001ab6      0x1c2 stack/nwk/src/nwkGroup.o
 .debug_line    0x00001c78      0x525 stack/nwk/src/nwkRoute.o
 .debug_line    0x0000219d      0x3a5 stack/nwk/src/nwkRouteDiscovery.o
 .debug_line    0x00002542      0x512 stack/nwk/src/nwkRx.o
 .debug_line    0x00002a54      0x50b stack/nwk/src/nwkTx.o
 .debug_line    0x00002f5f      0x3db stack/sys/src/sys.o
 .debug_line    0x0000333a      0x3cc stack/sys/src/sysTimer.o
 .debug_line    0x00003706      0x1f0 stack/sys/src/sysEncrypt.o
 .debug_line    0x000038f6      0x3ca stack/hal/drivers/atmega128rfa1/halUart.o
 .debug_line    0x00003cc0      0x36e stack/hal/drivers/atmega128rfa1/halSleep.o
 .debug_line    0x0000402e      0x506 commands.o
 .debug_line    0x00004534      0x579 WSNDemo.o
 .debug_line    0x00004aad       0xa1 c:/program files (x86)/atmel/atmel toolchain/avr8 gcc/native/3.4.2.1002/avr8-gnu-toolchain/bin/../lib/gcc/avr/4.7.2/../../../../avr/lib/avr51\libc.a(rand.o)

.debug_frame    0x00000000      0xb00
 *(.debug_frame)
 .debug_frame   0x00000000       0x34 stack/hal/atmega128rfa1/src/hal.o
 .debug_frame   0x00000034       0x54 stack/hal/atmega128rfa1/src/halTimer.o
 .debug_frame   0x00000088      0x11c stack/phy/atmegarfa1/src/phy.o
 .debug_frame   0x000001a4       0xd4 stack/nwk/src/nwk.o
 .debug_frame   0x00000278       0x68 stack/nwk/src/nwkDataReq.o
 .debug_frame   0x000002e0       0x64 stack/nwk/src/nwkFrame.o
 .debug_frame   0x00000344      0x16c stack/nwk/src/nwkRoute.o
 .debug_frame   0x000004b0       0xcc stack/nwk/src/nwkRx.o
 .debug_frame   0x0000057c      0x138 stack/nwk/src/nwkTx.o
 .debug_frame   0x000006b4       0x34 stack/sys/src/sys.o
 .debug_frame   0x000006e8       0xc0 stack/sys/src/sysTimer.o
 .debug_frame   0x000007a8       0xc0 stack/hal/drivers/atmega128rfa1/halUart.o
 .debug_frame   0x00000868       0x70 stack/hal/drivers/atmega128rfa1/halSleep.o
 .debug_frame   0x000008d8       0xe8 commands.o
 .debug_frame   0x000009c0       0xb8 WSNDemo.o
 .debug_frame   0x00000a78       0x88 c:/program files (x86)/atmel/atmel toolchain/avr8 gcc/native/3.4.2.1002/avr8-gnu-toolchain/bin/../lib/gcc/avr/4.7.2/../../../../avr/lib/avr51\libc.a(rand.o)

.debug_str      0x00000000    0x127e0
 *(.debug_str)
 .debug_str     0x00000000     0xeadb stack/hal/atmega128rfa1/src/hal.o
                               0xec21 (size before relaxing)
 .debug_str     0x0000eadb       0x5c stack/hal/atmega128rfa1/src/halTimer.o
                               0xec42 (size before relaxing)
 .debug_str     0x0000eb37     0x16a0 stack/phy/atmegarfa1/src/phy.o
                              0x1025b (size before relaxing)
 .debug_str     0x000101d7      0x6c1 stack/nwk/src/nwk.o
                               0xf5a6 (size before relaxing)
 .debug_str     0x00010898      0x353 stack/nwk/src/nwkDataReq.o
                               0xf766 (size before relaxing)
 .debug_str     0x00010beb       0x33 stack/nwk/src/nwkSecurity.o
                               0xf374 (size before relaxing)
 .debug_str     0x00010c1e       0x64 stack/nwk/src/nwkFrame.o
                               0xf5f9 (size before relaxing)
 .debug_str     0x00010c82       0x1f stack/nwk/src/nwkGroup.o
                               0x27e2 (size before relaxing)
 .debug_str     0x00010ca1      0x240 stack/nwk/src/nwkRoute.o
                               0xf6ed (size before relaxing)
 .debug_str     0x00010ee1       0x37 stack/nwk/src/nwkRouteDiscovery.o
                               0xf224 (size before relaxing)
 .debug_str     0x00010f18      0x3cc stack/nwk/src/nwkRx.o
                               0xfa87 (size before relaxing)
 .debug_str     0x000112e4      0x1b3 stack/nwk/src/nwkTx.o
                               0xf9ad (size before relaxing)
 .debug_str     0x00011497       0x5f stack/sys/src/sys.o
                               0xf080 (size before relaxing)
 .debug_str     0x000114f6       0x61 stack/sys/src/sysTimer.o
                               0xef81 (size before relaxing)
 .debug_str     0x00011557       0x21 stack/sys/src/sysEncrypt.o
                               0x262f (size before relaxing)
 .debug_str     0x00011578      0x198 stack/hal/drivers/atmega128rfa1/halUart.o
                               0xefd4 (size before relaxing)
 .debug_str     0x00011710      0x10f stack/hal/drivers/atmega128rfa1/halSleep.o
                               0xed18 (size before relaxing)
 .debug_str     0x0001181f      0x6d6 commands.o
                               0xfc0e (size before relaxing)
 .debug_str     0x00011ef5      0x86f WSNDemo.o
                              0x1026d (size before relaxing)
 .debug_str     0x00012764       0x7c c:/program files (x86)/atmel/atmel toolchain/avr8 gcc/native/3.4.2.1002/avr8-gnu-toolchain/bin/../lib/gcc/avr/4.7.2/../../../../avr/lib/avr51\libc.a(rand.o)
                                 0xba (size before relaxing)

.debug_loc      0x00000000     0x2962
 *(.debug_loc)
 .debug_loc     0x00000000       0x21 stack/hal/atmega128rfa1/src/hal.o
 .debug_loc     0x00000021       0x62 stack/hal/atmega128rfa1/src/halTimer.o
 .debug_loc     0x00000083      0x299 stack/phy/atmegarfa1/src/phy.o
 .debug_loc     0x0000031c      0x140 stack/nwk/src/nwk.o
 .debug_loc     0x0000045c      0x187 stack/nwk/src/nwkDataReq.o
 .debug_loc     0x000005e3       0x76 stack/nwk/src/nwkFrame.o
 .debug_loc     0x00000659      0x7fe stack/nwk/src/nwkRoute.o
 .debug_loc     0x00000e57      0x502 stack/nwk/src/nwkRx.o
 .debug_loc     0x00001359      0x666 stack/nwk/src/nwkTx.o
 .debug_loc     0x000019bf      0x3ba stack/sys/src/sysTimer.o
 .debug_loc     0x00001d79      0x1e9 stack/hal/drivers/atmega128rfa1/halUart.o
 .debug_loc     0x00001f62      0x15d stack/hal/drivers/atmega128rfa1/halSleep.o
 .debug_loc     0x000020bf      0x3fa commands.o
 .debug_loc     0x000024b9      0x2c1 WSNDemo.o
 .debug_loc     0x0000277a      0x1e8 c:/program files (x86)/atmel/atmel toolchain/avr8 gcc/native/3.4.2.1002/avr8-gnu-toolchain/bin/../lib/gcc/avr/4.7.2/../../../../avr/lib/avr51\libc.a(rand.o)

.debug_macinfo
 *(.debug_macinfo)

.debug_pubtypes
 *(.debug_pubtypes)

.debug_ranges   0x00000000      0x5a0
 *(.debug_ranges)
 .debug_ranges  0x00000000       0x18 stack/hal/atmega128rfa1/src/hal.o
 .debug_ranges  0x00000018       0x20 stack/hal/atmega128rfa1/src/halTimer.o
 .debug_ranges  0x00000038       0x68 stack/phy/atmegarfa1/src/phy.o
 .debug_ranges  0x000000a0       0x60 stack/nwk/src/nwk.o
 .debug_ranges  0x00000100       0x98 stack/nwk/src/nwkDataReq.o
 .debug_ranges  0x00000198       0x30 stack/nwk/src/nwkFrame.o
 .debug_ranges  0x000001c8       0x70 stack/nwk/src/nwkRoute.o
 .debug_ranges  0x00000238      0x168 stack/nwk/src/nwkRx.o
 .debug_ranges  0x000003a0       0x68 stack/nwk/src/nwkTx.o
 .debug_ranges  0x00000408       0x18 stack/sys/src/sys.o
 .debug_ranges  0x00000420       0x38 stack/sys/src/sysTimer.o
 .debug_ranges  0x00000458       0x38 stack/hal/drivers/atmega128rfa1/halUart.o
 .debug_ranges  0x00000490       0x20 stack/hal/drivers/atmega128rfa1/halSleep.o
 .debug_ranges  0x000004b0       0x50 commands.o
 .debug_ranges  0x00000500       0x78 WSNDemo.o
 .debug_ranges  0x00000578       0x28 c:/program files (x86)/atmel/atmel toolchain/avr8 gcc/native/3.4.2.1002/avr8-gnu-toolchain/bin/../lib/gcc/avr/4.7.2/../../../../avr/lib/avr51\libc.a(rand.o)

.debug_macro    0x00000000     0x6db3
 *(.debug_macro)
 .debug_macro   0x00000000       0xd2 stack/hal/atmega128rfa1/src/hal.o
 .debug_macro   0x000000d2      0x5da stack/hal/atmega128rfa1/src/hal.o
 .debug_macro   0x000006ac      0x1ad stack/hal/atmega128rfa1/src/hal.o
 .debug_macro   0x00000859       0x10 stack/hal/atmega128rfa1/src/hal.o
 .debug_macro   0x00000869      0x299 stack/hal/atmega128rfa1/src/hal.o
 .debug_macro   0x00000b02       0x9e stack/hal/atmega128rfa1/src/hal.o
 .debug_macro   0x00000ba0     0x3a5b stack/hal/atmega128rfa1/src/hal.o
 .debug_macro   0x000045fb       0x9a stack/hal/atmega128rfa1/src/hal.o
 .debug_macro   0x00004695       0x81 stack/hal/atmega128rfa1/src/hal.o
 .debug_macro   0x00004716       0x34 stack/hal/atmega128rfa1/src/hal.o
 .debug_macro   0x0000474a       0x18 stack/hal/atmega128rfa1/src/hal.o
 .debug_macro   0x00004762       0x6c stack/hal/atmega128rfa1/src/hal.o
 .debug_macro   0x000047ce       0x76 stack/hal/atmega128rfa1/src/hal.o
 .debug_macro   0x00004844       0x69 stack/hal/atmega128rfa1/src/hal.o
 .debug_macro   0x000048ad       0x10 stack/hal/atmega128rfa1/src/hal.o
 .debug_macro   0x000048bd       0x89 stack/hal/atmega128rfa1/src/hal.o
 .debug_macro   0x00004946      0x16c stack/hal/atmega128rfa1/src/hal.o
 .debug_macro   0x00004ab2       0x49 stack/hal/atmega128rfa1/src/hal.o
 .debug_macro   0x00004afb       0x10 stack/hal/atmega128rfa1/src/hal.o
 .debug_macro   0x00004b0b       0xd8 stack/hal/atmega128rfa1/src/halTimer.o
 .debug_macro   0x00004be3      0x109 stack/phy/atmegarfa1/src/phy.o
 .debug_macro   0x00004cec       0x22 stack/phy/atmegarfa1/src/phy.o
 .debug_macro   0x00004d0e       0x88 stack/phy/atmegarfa1/src/phy.o
 .debug_macro   0x00004d96       0x16 stack/phy/atmegarfa1/src/phy.o
 .debug_macro   0x00004dac      0x231 stack/phy/atmegarfa1/src/phy.o
 .debug_macro   0x00004fdd      0x182 stack/nwk/src/nwk.o
 .debug_macro   0x0000515f       0x1c stack/nwk/src/nwk.o
 .debug_macro   0x0000517b      0x10e stack/nwk/src/nwk.o
 .debug_macro   0x00005289       0x51 stack/nwk/src/nwk.o
 .debug_macro   0x000052da       0x16 stack/nwk/src/nwk.o
 .debug_macro   0x000052f0       0x20 stack/nwk/src/nwk.o
 .debug_macro   0x00005310       0x10 stack/nwk/src/nwk.o
 .debug_macro   0x00005320       0x12 stack/nwk/src/nwk.o
 .debug_macro   0x00005332      0x160 stack/nwk/src/nwk.o
 .debug_macro   0x00005492       0x10 stack/nwk/src/nwk.o
 .debug_macro   0x000054a2       0x16 stack/nwk/src/nwk.o
 .debug_macro   0x000054b8       0x1c stack/nwk/src/nwk.o
 .debug_macro   0x000054d4       0x1c stack/nwk/src/nwk.o
 .debug_macro   0x000054f0      0x167 stack/nwk/src/nwkDataReq.o
 .debug_macro   0x00005657       0x10 stack/nwk/src/nwkDataReq.o
 .debug_macro   0x00005667      0x16d stack/nwk/src/nwkSecurity.o
 .debug_macro   0x000057d4      0x155 stack/nwk/src/nwkFrame.o
 .debug_macro   0x00005929       0x6f stack/nwk/src/nwkGroup.o
 .debug_macro   0x00005998      0x173 stack/nwk/src/nwkRoute.o
 .debug_macro   0x00005b0b      0x171 stack/nwk/src/nwkRouteDiscovery.o
 .debug_macro   0x00005c7c      0x1ae stack/nwk/src/nwkRx.o
 .debug_macro   0x00005e2a      0x19c stack/nwk/src/nwkTx.o
 .debug_macro   0x00005fc6      0x153 stack/sys/src/sys.o
 .debug_macro   0x00006119       0xfc stack/sys/src/sysTimer.o
 .debug_macro   0x00006215       0x6a stack/sys/src/sysEncrypt.o
 .debug_macro   0x0000627f       0x97 stack/sys/src/sysEncrypt.o
 .debug_macro   0x00006316       0x16 stack/sys/src/sysEncrypt.o
 .debug_macro   0x0000632c       0x1c stack/sys/src/sysEncrypt.o
 .debug_macro   0x00006348      0x11f stack/hal/drivers/atmega128rfa1/halUart.o
 .debug_macro   0x00006467       0xee stack/hal/drivers/atmega128rfa1/halSleep.o
 .debug_macro   0x00006555      0x1a4 commands.o
 .debug_macro   0x000066f9       0x10 commands.o
 .debug_macro   0x00006709      0x21a WSNDemo.o
 .debug_macro   0x00006923      0x293 WSNDemo.o
 .debug_macro   0x00006bb6       0x58 WSNDemo.o
 .debug_macro   0x00006c0e       0x10 WSNDemo.o
 .debug_macro   0x00006c1e       0xeb WSNDemo.o
 .debug_macro   0x00006d09       0xaa WSNDemo.o
OUTPUT(WSNDemo.elf elf32-avr)
LOAD linker stubs
